{
  "contractName": "Airbnb",
  "abi": [
    {
      "anonymous": false,
      "inputs": [
        {
          "indexed": true,
          "internalType": "uint256",
          "name": "propertyId",
          "type": "uint256"
        },
        {
          "indexed": true,
          "internalType": "uint256",
          "name": "bookingId",
          "type": "uint256"
        }
      ],
      "name": "NewBooking",
      "type": "event"
    },
    {
      "anonymous": false,
      "inputs": [
        {
          "indexed": true,
          "internalType": "uint256",
          "name": "propertyId",
          "type": "uint256"
        }
      ],
      "name": "NewProperty",
      "type": "event"
    },
    {
      "constant": true,
      "inputs": [
        {
          "internalType": "uint256",
          "name": "",
          "type": "uint256"
        }
      ],
      "name": "allBookings",
      "outputs": [
        {
          "internalType": "uint256",
          "name": "id",
          "type": "uint256"
        },
        {
          "internalType": "uint256",
          "name": "checkIn",
          "type": "uint256"
        },
        {
          "internalType": "uint256",
          "name": "checkOut",
          "type": "uint256"
        },
        {
          "internalType": "address",
          "name": "user",
          "type": "address"
        }
      ],
      "payable": false,
      "stateMutability": "view",
      "type": "function"
    },
    {
      "constant": true,
      "inputs": [
        {
          "internalType": "uint256",
          "name": "",
          "type": "uint256"
        }
      ],
      "name": "allProperties",
      "outputs": [
        {
          "internalType": "uint256",
          "name": "id",
          "type": "uint256"
        },
        {
          "internalType": "string",
          "name": "name",
          "type": "string"
        },
        {
          "internalType": "string",
          "name": "description",
          "type": "string"
        },
        {
          "internalType": "bool",
          "name": "isActive",
          "type": "bool"
        },
        {
          "internalType": "address",
          "name": "owner",
          "type": "address"
        },
        {
          "internalType": "uint256",
          "name": "price",
          "type": "uint256"
        }
      ],
      "payable": false,
      "stateMutability": "view",
      "type": "function"
    },
    {
      "constant": true,
      "inputs": [],
      "name": "bookingId",
      "outputs": [
        {
          "internalType": "uint256",
          "name": "",
          "type": "uint256"
        }
      ],
      "payable": false,
      "stateMutability": "view",
      "type": "function"
    },
    {
      "constant": true,
      "inputs": [],
      "name": "propertyId",
      "outputs": [
        {
          "internalType": "uint256",
          "name": "",
          "type": "uint256"
        }
      ],
      "payable": false,
      "stateMutability": "view",
      "type": "function"
    },
    {
      "constant": false,
      "inputs": [
        {
          "internalType": "string",
          "name": "_name",
          "type": "string"
        },
        {
          "internalType": "string",
          "name": "_description",
          "type": "string"
        },
        {
          "internalType": "uint256",
          "name": "_price",
          "type": "uint256"
        }
      ],
      "name": "rentOutProperty",
      "outputs": [],
      "payable": false,
      "stateMutability": "nonpayable",
      "type": "function"
    },
    {
      "constant": false,
      "inputs": [
        {
          "internalType": "uint256",
          "name": "_propertyId",
          "type": "uint256"
        },
        {
          "internalType": "uint256",
          "name": "_checkInDate",
          "type": "uint256"
        },
        {
          "internalType": "uint256",
          "name": "_checkOutDate",
          "type": "uint256"
        }
      ],
      "name": "rentProperty",
      "outputs": [],
      "payable": true,
      "stateMutability": "payable",
      "type": "function"
    },
    {
      "constant": false,
      "inputs": [
        {
          "internalType": "uint256",
          "name": "_propertyId",
          "type": "uint256"
        }
      ],
      "name": "markAsInactive",
      "outputs": [],
      "payable": false,
      "stateMutability": "nonpayable",
      "type": "function"
    }
  ],
  "bytecode": "0x608060405234801561001057600080fd5b50611262806100206000396000f3fe6080604052600436106100705760003560e01c8063d2da7c711161004e578063d2da7c711461016b578063ee7a3b8e146101ad578063ee860c82146101d8578063f32adadc1461034157610070565b80630a10df7c1461007557806320656d98146100a057806385803d9c146100db575b600080fd5b34801561008157600080fd5b5061008a6104ad565b6040518082815260200191505060405180910390f35b3480156100ac57600080fd5b506100d9600480360360208110156100c357600080fd5b81019080803590602001909291905050506104b3565b005b3480156100e757600080fd5b50610114600480360360208110156100fe57600080fd5b81019080803590602001909291905050506106d7565b604051808581526020018481526020018381526020018273ffffffffffffffffffffffffffffffffffffffff1673ffffffffffffffffffffffffffffffffffffffff16815260200194505050505060405180910390f35b6101ab6004803603606081101561018157600080fd5b81019080803590602001909291908035906020019092919080359060200190929190505050610727565b005b3480156101b957600080fd5b506101c2610b3c565b6040518082815260200191505060405180910390f35b3480156101e457600080fd5b5061033f600480360360608110156101fb57600080fd5b810190808035906020019064010000000081111561021857600080fd5b82018360208201111561022a57600080fd5b8035906020019184600183028401116401000000008311171561024c57600080fd5b91908080601f016020809104026020016040519081016040528093929190818152602001838380828437600081840152601f19601f820116905080830192505050505050509192919290803590602001906401000000008111156102af57600080fd5b8201836020820111156102c157600080fd5b803590602001918460018302840111640100000000831117156102e357600080fd5b91908080601f016020809104026020016040519081016040528093929190818152602001838380828437600081840152601f19601f82011690508083019250505050505050919291929080359060200190929190505050610b42565b005b34801561034d57600080fd5b5061037a6004803603602081101561036457600080fd5b8101908080359060200190929190505050610ceb565b604051808781526020018060200180602001861515151581526020018573ffffffffffffffffffffffffffffffffffffffff1673ffffffffffffffffffffffffffffffffffffffff168152602001848152602001838103835288818151815260200191508051906020019080838360005b838110156104065780820151818401526020810190506103eb565b50505050905090810190601f1680156104335780820380516001836020036101000a031916815260200191505b50838103825287818151815260200191508051906020019080838360005b8381101561046c578082015181840152602081019050610451565b50505050905090810190601f1680156104995780820380516001836020036101000a031916815260200191505b509850505050505050505060405180910390f35b60025481565b80600081101580156104c6575060005481105b610538576040517f08c379a00000000000000000000000000000000000000000000000000000000081526004018080602001828103825260178152602001807f496e76616c69642070726f70657274792069642e2e2e2100000000000000000081525060200191505060405180910390fd5b3373ffffffffffffffffffffffffffffffffffffffff166001600084815260200190815260200160002060030160019054906101000a900473ffffffffffffffffffffffffffffffffffffffff1673ffffffffffffffffffffffffffffffffffffffff161461060f576040517f08c379a00000000000000000000000000000000000000000000000000000000081526004018080602001828103825260198152602001807f54484953204953204e4f5420594f55522050524f50455254590000000000000081525060200191505060405180910390fd5b600115156001600084815260200190815260200160002060030160009054906101000a900460ff161515146106ac576040517f08c379a00000000000000000000000000000000000000000000000000000000081526004018080602001828103825260148152602001807f416c726561647920496e6163746976652e2e2e2100000000000000000000000081525060200191505060405180910390fd5b600015156001600084815260200190815260200160002060030160009054906101000a905050505050565b60036020528060005260406000206000915090508060000154908060010154908060020154908060030160009054906101000a900473ffffffffffffffffffffffffffffffffffffffff16905084565b826000811015801561073a575060005481105b6107ac576040517f08c379a00000000000000000000000000000000000000000000000000000000081526004018080602001828103825260178152602001807f496e76616c69642070726f70657274792069642e2e2e2100000000000000000081525060200191505060405180910390fd5b6107b4611009565b600160008681526020019081526020016000206040518060e001604052908160008201548152602001600182018054600181600116156101000203166002900480601f0160208091040260200160405190810160405280929190818152602001828054600181600116156101000203166002900480156108755780601f1061084a57610100808354040283529160200191610875565b820191906000526020600020905b81548152906001019060200180831161085857829003601f168201915b50505050508152602001600282018054600181600116156101000203166002900480601f0160208091040260200160405190810160405280929190818152602001828054600181600116156101000203166002900480156109175780601f106108ec57610100808354040283529160200191610917565b820191906000526020600020905b8154815290600101906020018083116108fa57829003601f168201915b505050505081526020016003820160009054906101000a900460ff161515151581526020016003820160019054906101000a900473ffffffffffffffffffffffffffffffffffffffff1673ffffffffffffffffffffffffffffffffffffffff1673ffffffffffffffffffffffffffffffffffffffff1681526020016004820154815260200160058201805480602002602001604051908101604052809291908181526020018280548015610a0f57602002820191906000526020600020906000905b82829054906101000a900460ff161515815260200190600101906020826000010492830192600103820291508084116109d95790505b505050505081525050905060008490505b83811015610aaa57600115158260c001518281518110610a3c57fe5b602002602001015115151415610a9d576040517f08c379a000000000000000000000000000000000000000000000000000000000815260040180806020018281038252602e815260200180611200602e913960400191505060405180910390fd5b8080600101915050610a20565b506000848403670de0b6b3a76400008360a0015102029050803414610b1a576040517f08c379a00000000000000000000000000000000000000000000000000000000081526004018080602001828103825260268152602001806111da6026913960400191505060405180910390fd5b610b28826080015134610e84565b610b3482878787610ecf565b505050505050565b60005481565b6040518060e0016040528060005481526020018481526020018381526020016001151581526020013373ffffffffffffffffffffffffffffffffffffffff16815260200182815260200161016d604051908082528060200260200182016040528015610bbd5781602001602082028038833980820191505090505b508152506001600080548152602001908152602001600020600082015181600001556020820151816001019080519060200190610bfb92919061105e565b506040820151816002019080519060200190610c1892919061105e565b5060608201518160030160006101000a81548160ff02191690831515021790555060808201518160030160016101000a81548173ffffffffffffffffffffffffffffffffffffffff021916908373ffffffffffffffffffffffffffffffffffffffff16021790555060a0820151816004015560c0820151816005019080519060200190610ca69291906110de565b50905050600080815480929190600101919050557f49b7a39e21349b16cf820bbd35d2bc2d9f04dac75faa535510fc24d172b34afd60405160405180910390a2505050565b6001602052806000526040600020600091509050806000015490806001018054600181600116156101000203166002900480601f016020809104026020016040519081016040528092919081815260200182805460018160011615610100020316600290048015610d9d5780601f10610d7257610100808354040283529160200191610d9d565b820191906000526020600020905b815481529060010190602001808311610d8057829003601f168201915b505050505090806002018054600181600116156101000203166002900480601f016020809104026020016040519081016040528092919081815260200182805460018160011615610100020316600290048015610e3b5780601f10610e1057610100808354040283529160200191610e3b565b820191906000526020600020905b815481529060010190602001808311610e1e57829003601f168201915b5050505050908060030160009054906101000a900460ff16908060030160019054906101000a900473ffffffffffffffffffffffffffffffffffffffff16908060040154905086565b8173ffffffffffffffffffffffffffffffffffffffff166108fc829081150290604051600060405180830381858888f19350505050158015610eca573d6000803e3d6000fd5b505050565b60008290505b81811015610f0e5760018560c001518281518110610eef57fe5b6020026020010190151590811515815250508080600101915050610ed5565b5060405180608001604052808481526020018381526020018281526020013373ffffffffffffffffffffffffffffffffffffffff1681525060036000600254815260200190815260200160002060008201518160000155602082015181600101556040820151816002015560608201518160030160006101000a81548173ffffffffffffffffffffffffffffffffffffffff021916908373ffffffffffffffffffffffffffffffffffffffff16021790555090505060026000815480929190600101919050556000547f4f65de66b4cd3e97fb943ca503efa62b328170ad1a0aac0e9c979a164a317b3860405160405180910390a350505050565b6040518060e00160405280600081526020016060815260200160608152602001600015158152602001600073ffffffffffffffffffffffffffffffffffffffff16815260200160008152602001606081525090565b828054600181600116156101000203166002900490600052602060002090601f016020900481019282601f1061109f57805160ff19168380011785556110cd565b828001600101855582156110cd579182015b828111156110cc5782518255916020019190600101906110b1565b5b5090506110da9190611184565b5090565b82805482825590600052602060002090601f016020900481019282156111735791602002820160005b8382111561114457835183826101000a81548160ff0219169083151502179055509260200192600101602081600001049283019260010302611107565b80156111715782816101000a81549060ff0219169055600101602081600001049283019260010302611144565b505b50905061118091906111a9565b5090565b6111a691905b808211156111a257600081600090555060010161118a565b5090565b90565b6111d691905b808211156111d257600081816101000a81549060ff0219169055506001016111af565b5090565b9056fe496e73756666696369656e7420616d6f756e7420666f7220746869732070726f70657274792150726f7065727479206973206e6f7420617661696c61626c65206265747765656e20746865736520646174657321a265627a7a72315820410248cd0bf6f1e9953090a43d4e7d4bc5cfbec50a87abff1074d4f52f8c68cb64736f6c63430005100032",
  "source": "// SPDX-License-Identifier: MIT\r\npragma solidity >=0.4.22 <0.9.0;\r\n\r\ncontract Airbnb{\r\n    \r\n    // Property structure\r\n    struct Property{\r\n        uint id;\r\n        string name;\r\n        string description;\r\n        bool isActive;\r\n        address owner;\r\n        uint price;\r\n        bool[] isBooked;\r\n    }\r\n    uint public propertyId;\r\n    mapping(uint => Property) public allProperties;\r\n    \r\n    // Property booking structure\r\n    struct Booking{\r\n        uint id;\r\n        uint checkIn;\r\n        uint checkOut;\r\n        address user;\r\n    }\r\n    uint public bookingId;\r\n    mapping(uint => Booking) public allBookings;\r\n    \r\n    // Events \r\n    event NewProperty(uint indexed propertyId);\r\n    event NewBooking(uint indexed propertyId, uint indexed bookingId);\r\n    \r\n    // modifer to check weather the propertyId is valid or not\r\n    modifier isValidId(uint _propertyId){\r\n        require(_propertyId >=0 && _propertyId < propertyId, \"Invalid property id...!\");\r\n        _;\r\n    }\r\n    \r\n    // This will post the new Poperty on the app\r\n    function rentOutProperty(string memory _name, string memory _description, uint _price)public {\r\n        allProperties[propertyId] = Property(propertyId, _name, _description, true, msg.sender, _price, new bool[](365));\r\n        emit NewProperty(propertyId++);\r\n    }\r\n    \r\n    // This function will call by the person who wants to take property on rent\r\n    function rentProperty(uint _propertyId, uint _checkInDate, uint _checkOutDate)public payable isValidId(_propertyId) {\r\n        Property memory property = allProperties[_propertyId];\r\n        for(uint i=_checkInDate; i<_checkOutDate; i++){\r\n            require(property.isBooked[i] != true, \"Property is not available between these dates!\");\r\n        }\r\n        \r\n        uint priceToBePaid = (property.price * 1 ether) * (_checkOutDate - _checkInDate);\r\n        require(msg.value == priceToBePaid, \"Insufficient amount for this property!\");\r\n        \r\n        sendFund(property.owner, msg.value);\r\n        createBooking(property, _propertyId, _checkInDate, _checkOutDate);\r\n    }\r\n    \r\n    // This function transfer the funds to the property owner\r\n    function sendFund(address _owner, uint amount)internal{\r\n        address(uint160(_owner)).transfer(amount);\r\n    }\r\n    \r\n    // This will createBooking with following parameters\r\n    function createBooking(Property memory _property, uint _propertyId, uint _checkInDate, uint _checkOutDate)internal{\r\n        \r\n        for(uint i=_checkInDate; i<_checkOutDate ;i++){\r\n            _property.isBooked[i] = true;            \r\n        }\r\n        allBookings[bookingId] = Booking(_propertyId, _checkInDate, _checkOutDate, msg.sender);\r\n        emit NewBooking(propertyId, bookingId++);\r\n    }\r\n    \r\n    // This will mark a Property active state to 'false'\r\n    function markAsInactive(uint _propertyId)public isValidId(_propertyId){\r\n        require(allProperties[_propertyId].owner == msg.sender,\"THIS IS NOT YOUR PROPERTY\");\r\n        require(allProperties[_propertyId].isActive == true, \"Already Inactive...!\");\r\n        allProperties[_propertyId].isActive == false;\r\n    }\r\n}",
  "sourcePath": "D:/Blockchain/Truffle/Airbnb-Dapp/contracts/Airbnb.sol",
  "compiler": {
    "name": "solc",
    "version": "0.5.16+commit.9c3226ce.Emscripten.clang"
  },
  "schemaVersion": "3.4.0",
  "updatedAt": "2021-05-10T08:40:58.431Z",
  "devdoc": {
    "methods": {}
  },
  "userdoc": {
    "methods": {}
  }
}